{
  "_format": "hh-sol-artifact-1",
  "contractName": "RegistroVisitas",
  "sourceName": "contracts/RegistroVisital.sol",
  "abi": [
    {
      "anonymous": false,
      "inputs": [
        {
          "indexed": true,
          "internalType": "address",
          "name": "usuario",
          "type": "address"
        },
        {
          "indexed": false,
          "internalType": "uint256",
          "name": "cantidadVisitas",
          "type": "uint256"
        },
        {
          "indexed": true,
          "internalType": "uint256",
          "name": "timestamp",
          "type": "uint256"
        }
      ],
      "name": "NuevaVisita",
      "type": "event"
    },
    {
      "inputs": [
        {
          "internalType": "address",
          "name": "usuario",
          "type": "address"
        }
      ],
      "name": "obtenerVisita",
      "outputs": [
        {
          "internalType": "uint256",
          "name": "",
          "type": "uint256"
        },
        {
          "internalType": "uint256",
          "name": "",
          "type": "uint256"
        }
      ],
      "stateMutability": "view",
      "type": "function"
    },
    {
      "inputs": [
        {
          "internalType": "address",
          "name": "usuario",
          "type": "address"
        }
      ],
      "name": "visitar",
      "outputs": [],
      "stateMutability": "nonpayable",
      "type": "function"
    },
    {
      "inputs": [
        {
          "internalType": "address",
          "name": "",
          "type": "address"
        }
      ],
      "name": "visitas",
      "outputs": [
        {
          "internalType": "uint256",
          "name": "cantidadVisitas",
          "type": "uint256"
        },
        {
          "internalType": "uint256",
          "name": "timestamp",
          "type": "uint256"
        }
      ],
      "stateMutability": "view",
      "type": "function"
    }
  ],
  "bytecode": "0x608060405234801561001057600080fd5b50610442806100206000396000f3fe608060405234801561001057600080fd5b50600436106100415760003560e01c80630ca257471461004657806319b740be14610077578063c87a87ba14610093575b600080fd5b610060600480360381019061005b919061030b565b6100c4565b60405161006e929190610351565b60405180910390f35b610091600480360381019061008c919061030b565b6100e8565b005b6100ad60048036038101906100a8919061030b565b610218565b6040516100bb929190610351565b60405180910390f35b60006020528060005260406000206000915090508060000154908060010154905082565b6000808273ffffffffffffffffffffffffffffffffffffffff1673ffffffffffffffffffffffffffffffffffffffff168152602001908152602001600020600001600081548092919061013a906103a9565b9190505550426000808373ffffffffffffffffffffffffffffffffffffffff1673ffffffffffffffffffffffffffffffffffffffff16815260200190815260200160002060010181905550428173ffffffffffffffffffffffffffffffffffffffff167f034fce878bafcff28c0ccfdce4c685483caeab81ef6cb74ba0b1460815d612016000808573ffffffffffffffffffffffffffffffffffffffff1673ffffffffffffffffffffffffffffffffffffffff1681526020019081526020016000206000015460405161020d91906103f1565b60405180910390a350565b6000806000808473ffffffffffffffffffffffffffffffffffffffff1673ffffffffffffffffffffffffffffffffffffffff168152602001908152602001600020600001546000808573ffffffffffffffffffffffffffffffffffffffff1673ffffffffffffffffffffffffffffffffffffffff1681526020019081526020016000206001015491509150915091565b600080fd5b600073ffffffffffffffffffffffffffffffffffffffff82169050919050565b60006102d8826102ad565b9050919050565b6102e8816102cd565b81146102f357600080fd5b50565b600081359050610305816102df565b92915050565b600060208284031215610321576103206102a8565b5b600061032f848285016102f6565b91505092915050565b6000819050919050565b61034b81610338565b82525050565b60006040820190506103666000830185610342565b6103736020830184610342565b9392505050565b7f4e487b7100000000000000000000000000000000000000000000000000000000600052601160045260246000fd5b60006103b482610338565b91507fffffffffffffffffffffffffffffffffffffffffffffffffffffffffffffffff82036103e6576103e561037a565b5b600182019050919050565b60006020820190506104066000830184610342565b9291505056fea26469706673582212203363bab1cbb2ebdfed585dac80b1f2881d4ef2e483f803fbd9e0d0fed84ced4664736f6c63430008120033",
  "linkReferences": {},
  "deployedLinkReferences": {}
}